{
  "_format": "hh-sol-artifact-1",
  "contractName": "StakingRewardsPool",
  "sourceName": "contracts/StakingRewardsPool.sol",
  "abi": [
    {
      "inputs": [
        {
          "internalType": "address",
          "name": "_owner",
          "type": "address"
        },
        {
          "internalType": "address",
          "name": "_rewardsDistribution",
          "type": "address"
        },
        {
          "internalType": "address",
          "name": "_rewardsToken",
          "type": "address"
        },
        {
          "internalType": "address",
          "name": "_stakingToken",
          "type": "address"
        }
      ],
      "stateMutability": "nonpayable",
      "type": "constructor"
    },
    {
      "anonymous": false,
      "inputs": [
        {
          "indexed": false,
          "internalType": "address",
          "name": "oldOwner",
          "type": "address"
        },
        {
          "indexed": false,
          "internalType": "address",
          "name": "newOwner",
          "type": "address"
        }
      ],
      "name": "OwnerChanged",
      "type": "event"
    },
    {
      "anonymous": false,
      "inputs": [
        {
          "indexed": false,
          "internalType": "address",
          "name": "newOwner",
          "type": "address"
        }
      ],
      "name": "OwnerNominated",
      "type": "event"
    },
    {
      "anonymous": false,
      "inputs": [
        {
          "indexed": false,
          "internalType": "bool",
          "name": "isPaused",
          "type": "bool"
        }
      ],
      "name": "PauseChanged",
      "type": "event"
    },
    {
      "anonymous": false,
      "inputs": [
        {
          "indexed": false,
          "internalType": "address",
          "name": "token",
          "type": "address"
        },
        {
          "indexed": false,
          "internalType": "uint256",
          "name": "amount",
          "type": "uint256"
        }
      ],
      "name": "Recovered",
      "type": "event"
    },
    {
      "anonymous": false,
      "inputs": [
        {
          "indexed": false,
          "internalType": "uint256",
          "name": "reward",
          "type": "uint256"
        }
      ],
      "name": "RewardAdded",
      "type": "event"
    },
    {
      "anonymous": false,
      "inputs": [
        {
          "indexed": true,
          "internalType": "address",
          "name": "user",
          "type": "address"
        },
        {
          "indexed": false,
          "internalType": "uint256",
          "name": "reward",
          "type": "uint256"
        }
      ],
      "name": "RewardPaid",
      "type": "event"
    },
    {
      "anonymous": false,
      "inputs": [
        {
          "indexed": false,
          "internalType": "uint256",
          "name": "newDuration",
          "type": "uint256"
        }
      ],
      "name": "RewardsDurationUpdated",
      "type": "event"
    },
    {
      "anonymous": false,
      "inputs": [
        {
          "indexed": true,
          "internalType": "address",
          "name": "user",
          "type": "address"
        },
        {
          "indexed": false,
          "internalType": "uint256",
          "name": "amount",
          "type": "uint256"
        }
      ],
      "name": "Staked",
      "type": "event"
    },
    {
      "anonymous": false,
      "inputs": [
        {
          "indexed": true,
          "internalType": "address",
          "name": "user",
          "type": "address"
        },
        {
          "indexed": false,
          "internalType": "uint256",
          "name": "amount",
          "type": "uint256"
        }
      ],
      "name": "Withdrawn",
      "type": "event"
    },
    {
      "inputs": [],
      "name": "acceptOwnership",
      "outputs": [],
      "stateMutability": "nonpayable",
      "type": "function"
    },
    {
      "inputs": [
        {
          "internalType": "address",
          "name": "account",
          "type": "address"
        }
      ],
      "name": "balaceOf",
      "outputs": [
        {
          "internalType": "uint256",
          "name": "",
          "type": "uint256"
        }
      ],
      "stateMutability": "view",
      "type": "function"
    },
    {
      "inputs": [
        {
          "internalType": "address",
          "name": "account",
          "type": "address"
        }
      ],
      "name": "earned",
      "outputs": [
        {
          "internalType": "uint256",
          "name": "",
          "type": "uint256"
        }
      ],
      "stateMutability": "view",
      "type": "function"
    },
    {
      "inputs": [],
      "name": "exit",
      "outputs": [],
      "stateMutability": "nonpayable",
      "type": "function"
    },
    {
      "inputs": [],
      "name": "getReward",
      "outputs": [],
      "stateMutability": "nonpayable",
      "type": "function"
    },
    {
      "inputs": [],
      "name": "getRewardForDuration",
      "outputs": [
        {
          "internalType": "uint256",
          "name": "",
          "type": "uint256"
        }
      ],
      "stateMutability": "view",
      "type": "function"
    },
    {
      "inputs": [],
      "name": "lastPauseTime",
      "outputs": [
        {
          "internalType": "uint256",
          "name": "",
          "type": "uint256"
        }
      ],
      "stateMutability": "view",
      "type": "function"
    },
    {
      "inputs": [],
      "name": "lastTimeRewardApplicable",
      "outputs": [
        {
          "internalType": "uint256",
          "name": "",
          "type": "uint256"
        }
      ],
      "stateMutability": "view",
      "type": "function"
    },
    {
      "inputs": [],
      "name": "lastUpdateTime",
      "outputs": [
        {
          "internalType": "uint256",
          "name": "",
          "type": "uint256"
        }
      ],
      "stateMutability": "view",
      "type": "function"
    },
    {
      "inputs": [
        {
          "internalType": "address",
          "name": "_owner",
          "type": "address"
        }
      ],
      "name": "nominateNewOwner",
      "outputs": [],
      "stateMutability": "nonpayable",
      "type": "function"
    },
    {
      "inputs": [],
      "name": "nominatedOwner",
      "outputs": [
        {
          "internalType": "address",
          "name": "",
          "type": "address"
        }
      ],
      "stateMutability": "view",
      "type": "function"
    },
    {
      "inputs": [
        {
          "internalType": "uint256",
          "name": "reward",
          "type": "uint256"
        }
      ],
      "name": "notifyRewardAmount",
      "outputs": [],
      "stateMutability": "nonpayable",
      "type": "function"
    },
    {
      "inputs": [],
      "name": "owner",
      "outputs": [
        {
          "internalType": "address",
          "name": "",
          "type": "address"
        }
      ],
      "stateMutability": "view",
      "type": "function"
    },
    {
      "inputs": [],
      "name": "paused",
      "outputs": [
        {
          "internalType": "bool",
          "name": "",
          "type": "bool"
        }
      ],
      "stateMutability": "view",
      "type": "function"
    },
    {
      "inputs": [],
      "name": "periodFinish",
      "outputs": [
        {
          "internalType": "uint256",
          "name": "",
          "type": "uint256"
        }
      ],
      "stateMutability": "view",
      "type": "function"
    },
    {
      "inputs": [
        {
          "internalType": "address",
          "name": "tokenAddress",
          "type": "address"
        },
        {
          "internalType": "uint256",
          "name": "tokenAmount",
          "type": "uint256"
        }
      ],
      "name": "recoverERC20",
      "outputs": [],
      "stateMutability": "nonpayable",
      "type": "function"
    },
    {
      "inputs": [],
      "name": "rewardPerToken",
      "outputs": [
        {
          "internalType": "uint256",
          "name": "",
          "type": "uint256"
        }
      ],
      "stateMutability": "view",
      "type": "function"
    },
    {
      "inputs": [],
      "name": "rewardPerTokenStored",
      "outputs": [
        {
          "internalType": "uint256",
          "name": "",
          "type": "uint256"
        }
      ],
      "stateMutability": "view",
      "type": "function"
    },
    {
      "inputs": [],
      "name": "rewardRate",
      "outputs": [
        {
          "internalType": "uint256",
          "name": "",
          "type": "uint256"
        }
      ],
      "stateMutability": "view",
      "type": "function"
    },
    {
      "inputs": [
        {
          "internalType": "address",
          "name": "",
          "type": "address"
        }
      ],
      "name": "rewards",
      "outputs": [
        {
          "internalType": "uint256",
          "name": "",
          "type": "uint256"
        }
      ],
      "stateMutability": "view",
      "type": "function"
    },
    {
      "inputs": [],
      "name": "rewardsDistribution",
      "outputs": [
        {
          "internalType": "address",
          "name": "",
          "type": "address"
        }
      ],
      "stateMutability": "view",
      "type": "function"
    },
    {
      "inputs": [],
      "name": "rewardsDuration",
      "outputs": [
        {
          "internalType": "uint256",
          "name": "",
          "type": "uint256"
        }
      ],
      "stateMutability": "view",
      "type": "function"
    },
    {
      "inputs": [],
      "name": "rewardsToken",
      "outputs": [
        {
          "internalType": "contract IERC20",
          "name": "",
          "type": "address"
        }
      ],
      "stateMutability": "view",
      "type": "function"
    },
    {
      "inputs": [
        {
          "internalType": "bool",
          "name": "_paused",
          "type": "bool"
        }
      ],
      "name": "setPaused",
      "outputs": [],
      "stateMutability": "nonpayable",
      "type": "function"
    },
    {
      "inputs": [
        {
          "internalType": "address",
          "name": "_rewardsDistribution",
          "type": "address"
        }
      ],
      "name": "setRewardsDistribution",
      "outputs": [],
      "stateMutability": "nonpayable",
      "type": "function"
    },
    {
      "inputs": [
        {
          "internalType": "uint256",
          "name": "_rewardsDuration",
          "type": "uint256"
        }
      ],
      "name": "setRewardsDuration",
      "outputs": [],
      "stateMutability": "nonpayable",
      "type": "function"
    },
    {
      "inputs": [
        {
          "internalType": "uint256",
          "name": "amount",
          "type": "uint256"
        }
      ],
      "name": "stake",
      "outputs": [],
      "stateMutability": "nonpayable",
      "type": "function"
    },
    {
      "inputs": [],
      "name": "stakingToken",
      "outputs": [
        {
          "internalType": "contract IERC20",
          "name": "",
          "type": "address"
        }
      ],
      "stateMutability": "view",
      "type": "function"
    },
    {
      "inputs": [],
      "name": "totalSupply",
      "outputs": [
        {
          "internalType": "uint256",
          "name": "",
          "type": "uint256"
        }
      ],
      "stateMutability": "view",
      "type": "function"
    },
    {
      "inputs": [
        {
          "internalType": "address",
          "name": "",
          "type": "address"
        }
      ],
      "name": "userRewardPerTokenPaid",
      "outputs": [
        {
          "internalType": "uint256",
          "name": "",
          "type": "uint256"
        }
      ],
      "stateMutability": "view",
      "type": "function"
    },
    {
      "inputs": [
        {
          "internalType": "uint256",
          "name": "amount",
          "type": "uint256"
        }
      ],
      "name": "withdraw",
      "outputs": [],
      "stateMutability": "nonpayable",
      "type": "function"
    }
  ],
  "bytecode": "0x60806040526000600755600060085562278d006009553480156200002257600080fd5b5060405162002d5138038062002d5183398181016040528101906200004891906200030b565b83600073ffffffffffffffffffffffffffffffffffffffff168173ffffffffffffffffffffffffffffffffffffffff161415620000bc576040517f08c379a0000000000000000000000000000000000000000000000000000000008152600401620000b390620003de565b60405180910390fd5b806000806101000a81548173ffffffffffffffffffffffffffffffffffffffff021916908373ffffffffffffffffffffffffffffffffffffffff1602179055507fb532073b38c83145e3e5135377a08bf9aab55bc0fd7c1179cd4fb995d2a5159c6000826040516200013092919062000411565b60405180910390a1506001600381905550600073ffffffffffffffffffffffffffffffffffffffff1660008054906101000a900473ffffffffffffffffffffffffffffffffffffffff1673ffffffffffffffffffffffffffffffffffffffff161415620001d4576040517f08c379a0000000000000000000000000000000000000000000000000000000008152600401620001cb906200048e565b60405180910390fd5b81600560016101000a81548173ffffffffffffffffffffffffffffffffffffffff021916908373ffffffffffffffffffffffffffffffffffffffff16021790555080600660006101000a81548173ffffffffffffffffffffffffffffffffffffffff021916908373ffffffffffffffffffffffffffffffffffffffff16021790555082600260006101000a81548173ffffffffffffffffffffffffffffffffffffffff021916908373ffffffffffffffffffffffffffffffffffffffff16021790555050505050620004b0565b600080fd5b600073ffffffffffffffffffffffffffffffffffffffff82169050919050565b6000620002d382620002a6565b9050919050565b620002e581620002c6565b8114620002f157600080fd5b50565b6000815190506200030581620002da565b92915050565b60008060008060808587031215620003285762000327620002a1565b5b60006200033887828801620002f4565b94505060206200034b87828801620002f4565b93505060406200035e87828801620002f4565b92505060606200037187828801620002f4565b91505092959194509250565b600082825260208201905092915050565b7f4f776e657220616464726573732063616e6e6f74206265203000000000000000600082015250565b6000620003c66019836200037d565b9150620003d3826200038e565b602082019050919050565b60006020820190508181036000830152620003f981620003b7565b9050919050565b6200040b81620002c6565b82525050565b600060408201905062000428600083018562000400565b62000437602083018462000400565b9392505050565b7f4f776e6572206d75737420626520736574000000000000000000000000000000600082015250565b6000620004766011836200037d565b915062000483826200043e565b602082019050919050565b60006020820190508181036000830152620004a98162000467565b9050919050565b61289180620004c06000396000f3fe608060405234801561001057600080fd5b50600436106101e45760003560e01c806379ba50971161010f578063b5c43e04116100a2578063d1af0c7d11610071578063d1af0c7d14610523578063df136d6514610541578063e9fad8ee1461055f578063ebe2b12b14610569576101e4565b8063b5c43e041461049b578063c8f33c91146104cb578063cc1a378f146104e9578063cd3daf9d14610505576101e4565b80638b876347116100de5780638b876347146104135780638da5cb5b1461044357806391b4ded914610461578063a694fc3a1461047f576101e4565b806379ba5097146103b15780637b0a47ee146103bb57806380faa57d146103d95780638980f11f146103f7576101e4565b80632e1a7d4d116101875780633fc6df6e116101565780633fc6df6e1461033957806353a47bb7146103575780635c975abb1461037557806372f702f314610393576101e4565b80632e1a7d4d146102d9578063386a9525146102f55780633c6b16ab146103135780633d18b9121461032f576101e4565b806316c38b3c116101c357806316c38b3c1461026557806318160ddd14610281578063197621431461029f5780631c1f78eb146102bb576101e4565b80628cc262146101e95780630700037d146102195780631627540c14610249575b600080fd5b61020360048036038101906101fe9190611c7e565b610587565b6040516102109190611cc4565b60405180910390f35b610233600480360381019061022e9190611c7e565b610689565b6040516102409190611cc4565b60405180910390f35b610263600480360381019061025e9190611c7e565b6106a1565b005b61027f600480360381019061027a9190611d17565b610724565b005b6102896107cd565b6040516102969190611cc4565b60405180910390f35b6102b960048036038101906102b49190611c7e565b6107d7565b005b6102c3610823565b6040516102d09190611cc4565b60405180910390f35b6102f360048036038101906102ee9190611d70565b61083a565b005b6102fd610ac5565b60405161030a9190611cc4565b60405180910390f35b61032d60048036038101906103289190611d70565b610acb565b005b610337610df1565b005b61034161105d565b60405161034e9190611dac565b60405180910390f35b61035f611083565b60405161036c9190611dac565b60405180910390f35b61037d6110a9565b60405161038a9190611dd6565b60405180910390f35b61039b6110bc565b6040516103a89190611e50565b60405180910390f35b6103b96110e2565b005b6103c36111e2565b6040516103d09190611cc4565b60405180910390f35b6103e16111e8565b6040516103ee9190611cc4565b60405180910390f35b610411600480360381019061040c9190611e6b565b611202565b005b61042d60048036038101906104289190611c7e565b611323565b60405161043a9190611cc4565b60405180910390f35b61044b61133b565b6040516104589190611dac565b60405180910390f35b61046961135f565b6040516104769190611cc4565b60405180910390f35b61049960048036038101906104949190611d70565b611365565b005b6104b560048036038101906104b09190611c7e565b611642565b6040516104c29190611cc4565b60405180910390f35b6104d361168b565b6040516104e09190611cc4565b60405180910390f35b61050360048036038101906104fe9190611d70565b611691565b005b61050d611720565b60405161051a9190611cc4565b60405180910390f35b61052b61178b565b6040516105389190611e50565b60405180910390f35b6105496117b1565b6040516105569190611cc4565b60405180910390f35b6105676117b7565b005b610571611809565b60405161057e9190611cc4565b60405180910390f35b6000600d60008373ffffffffffffffffffffffffffffffffffffffff1673ffffffffffffffffffffffffffffffffffffffff16815260200190815260200160002054670de0b6b3a7640000600c60008573ffffffffffffffffffffffffffffffffffffffff1673ffffffffffffffffffffffffffffffffffffffff1681526020019081526020016000205461061a611720565b6106249190611eda565b600f60008673ffffffffffffffffffffffffffffffffffffffff1673ffffffffffffffffffffffffffffffffffffffff1681526020019081526020016000205461066e9190611f0e565b6106789190611f97565b6106829190611fc8565b9050919050565b600d6020528060005260406000206000915090505481565b6106a961180f565b80600160006101000a81548173ffffffffffffffffffffffffffffffffffffffff021916908373ffffffffffffffffffffffffffffffffffffffff1602179055507f906a1c6bd7e3091ea86693dd029a831c19049ce77f1dce2ce0bab1cacbabce22816040516107199190611dac565b60405180910390a150565b61072c61180f565b600560009054906101000a900460ff161515811515141561074c576107ca565b80600560006101000a81548160ff021916908315150217905550600560009054906101000a900460ff161561078357426004819055505b7f8fb6c181ee25a520cf3dd6565006ef91229fcfe5a989566c2a3b8c115570cec5600560009054906101000a900460ff166040516107c19190611dd6565b60405180910390a15b50565b6000600e54905090565b6107df61180f565b80600260006101000a81548173ffffffffffffffffffffffffffffffffffffffff021916908373ffffffffffffffffffffffffffffffffffffffff16021790555050565b60006009546008546108359190611f0e565b905090565b60026003541415610880576040517f08c379a00000000000000000000000000000000000000000000000000000000081526004016108779061207b565b60405180910390fd5b600260038190555033610891611720565b600b8190555061089f6111e8565b600a81905550600073ffffffffffffffffffffffffffffffffffffffff168173ffffffffffffffffffffffffffffffffffffffff161461096c576108e281610587565b600d60008373ffffffffffffffffffffffffffffffffffffffff1673ffffffffffffffffffffffffffffffffffffffff16815260200190815260200160002081905550600b54600c60008373ffffffffffffffffffffffffffffffffffffffff1673ffffffffffffffffffffffffffffffffffffffff168152602001908152602001600020819055505b600082116109af576040517f08c379a00000000000000000000000000000000000000000000000000000000081526004016109a6906120e7565b60405180910390fd5b81600e60008282546109c19190611eda565b9250508190555081600f60003373ffffffffffffffffffffffffffffffffffffffff1673ffffffffffffffffffffffffffffffffffffffff1681526020019081526020016000206000828254610a179190611eda565b92505081905550610a6b3383600660009054906101000a900473ffffffffffffffffffffffffffffffffffffffff1673ffffffffffffffffffffffffffffffffffffffff1661189f9092919063ffffffff16565b3373ffffffffffffffffffffffffffffffffffffffff167f7084f5476618d8e60b11ef0d7d3f06914655adb8793e28ff7f018d4c76d505d583604051610ab19190611cc4565b60405180910390a250600160038190555050565b60095481565b600260009054906101000a900473ffffffffffffffffffffffffffffffffffffffff1673ffffffffffffffffffffffffffffffffffffffff163373ffffffffffffffffffffffffffffffffffffffff1614610b5b576040517f08c379a0000000000000000000000000000000000000000000000000000000008152600401610b5290612179565b60405180910390fd5b6000610b65611720565b600b81905550610b736111e8565b600a81905550600073ffffffffffffffffffffffffffffffffffffffff168173ffffffffffffffffffffffffffffffffffffffff1614610c4057610bb681610587565b600d60008373ffffffffffffffffffffffffffffffffffffffff1673ffffffffffffffffffffffffffffffffffffffff16815260200190815260200160002081905550600b54600c60008373ffffffffffffffffffffffffffffffffffffffff1673ffffffffffffffffffffffffffffffffffffffff168152602001908152602001600020819055505b6007544210610c625760095482610c579190611f97565b600881905550610ca8565b600042600754610c729190611eda565b9050600060085482610c849190611f0e565b90506009548185610c959190611fc8565b610c9f9190611f97565b60088190555050505b6000600560019054906101000a900473ffffffffffffffffffffffffffffffffffffffff1673ffffffffffffffffffffffffffffffffffffffff166370a08231306040518263ffffffff1660e01b8152600401610d059190611dac565b602060405180830381865afa158015610d22573d6000803e3d6000fd5b505050506040513d601f19601f82011682018060405250810190610d4691906121ae565b905060095481610d569190611f97565b6008541115610d9a576040517f08c379a0000000000000000000000000000000000000000000000000000000008152600401610d9190612227565b60405180910390fd5b42600a8190555060095442610daf9190611fc8565b6007819055507fde88a922e0d3b88b24e9623efeb464919c6bf9f66857a65e2bfcf2ce87a9433d83604051610de49190611cc4565b60405180910390a1505050565b60026003541415610e37576040517f08c379a0000000000000000000000000000000000000000000000000000000008152600401610e2e9061207b565b60405180910390fd5b600260038190555033610e48611720565b600b81905550610e566111e8565b600a81905550600073ffffffffffffffffffffffffffffffffffffffff168173ffffffffffffffffffffffffffffffffffffffff1614610f2357610e9981610587565b600d60008373ffffffffffffffffffffffffffffffffffffffff1673ffffffffffffffffffffffffffffffffffffffff16815260200190815260200160002081905550600b54600c60008373ffffffffffffffffffffffffffffffffffffffff1673ffffffffffffffffffffffffffffffffffffffff168152602001908152602001600020819055505b6000600d60003373ffffffffffffffffffffffffffffffffffffffff1673ffffffffffffffffffffffffffffffffffffffff1681526020019081526020016000205490506000811115611051576000600d60003373ffffffffffffffffffffffffffffffffffffffff1673ffffffffffffffffffffffffffffffffffffffff168152602001908152602001600020819055506110023382600560019054906101000a900473ffffffffffffffffffffffffffffffffffffffff1673ffffffffffffffffffffffffffffffffffffffff1661189f9092919063ffffffff16565b3373ffffffffffffffffffffffffffffffffffffffff167fe2403640ba68fed3a2f88b7557551d1993f84b99bb10ff833f0cf8db0c5e0486826040516110489190611cc4565b60405180910390a25b50506001600381905550565b600260009054906101000a900473ffffffffffffffffffffffffffffffffffffffff1681565b600160009054906101000a900473ffffffffffffffffffffffffffffffffffffffff1681565b600560009054906101000a900460ff1681565b600660009054906101000a900473ffffffffffffffffffffffffffffffffffffffff1681565b600160009054906101000a900473ffffffffffffffffffffffffffffffffffffffff1673ffffffffffffffffffffffffffffffffffffffff163373ffffffffffffffffffffffffffffffffffffffff161461113c57600080fd5b600160009054906101000a900473ffffffffffffffffffffffffffffffffffffffff166000806101000a81548173ffffffffffffffffffffffffffffffffffffffff021916908373ffffffffffffffffffffffffffffffffffffffff1602179055506000600160006101000a81548173ffffffffffffffffffffffffffffffffffffffff021916908373ffffffffffffffffffffffffffffffffffffffff160217905550565b60085481565b600060075442106111fb576007546111fd565b425b905090565b61120a61180f565b600660009054906101000a900473ffffffffffffffffffffffffffffffffffffffff1673ffffffffffffffffffffffffffffffffffffffff168273ffffffffffffffffffffffffffffffffffffffff16141561129b576040517f08c379a0000000000000000000000000000000000000000000000000000000008152600401611292906122b9565b60405180910390fd5b6112e660008054906101000a900473ffffffffffffffffffffffffffffffffffffffff16828473ffffffffffffffffffffffffffffffffffffffff1661189f9092919063ffffffff16565b7f8c1256b8896378cd5044f80c202f9772b9d77dc85c8a6eb51967210b09bfaa2882826040516113179291906122d9565b60405180910390a15050565b600c6020528060005260406000206000915090505481565b60008054906101000a900473ffffffffffffffffffffffffffffffffffffffff1681565b60045481565b600260035414156113ab576040517f08c379a00000000000000000000000000000000000000000000000000000000081526004016113a29061207b565b60405180910390fd5b6002600381905550600560009054906101000a900460ff1615611403576040517f08c379a00000000000000000000000000000000000000000000000000000000081526004016113fa90612374565b60405180910390fd5b3361140c611720565b600b8190555061141a6111e8565b600a81905550600073ffffffffffffffffffffffffffffffffffffffff168173ffffffffffffffffffffffffffffffffffffffff16146114e75761145d81610587565b600d60008373ffffffffffffffffffffffffffffffffffffffff1673ffffffffffffffffffffffffffffffffffffffff16815260200190815260200160002081905550600b54600c60008373ffffffffffffffffffffffffffffffffffffffff1673ffffffffffffffffffffffffffffffffffffffff168152602001908152602001600020819055505b6000821161152a576040517f08c379a0000000000000000000000000000000000000000000000000000000008152600401611521906123e0565b60405180910390fd5b81600e600082825461153c9190611fc8565b9250508190555081600f60003373ffffffffffffffffffffffffffffffffffffffff1673ffffffffffffffffffffffffffffffffffffffff16815260200190815260200160002060008282546115929190611fc8565b925050819055506115e8333084600660009054906101000a900473ffffffffffffffffffffffffffffffffffffffff1673ffffffffffffffffffffffffffffffffffffffff16611925909392919063ffffffff16565b3373ffffffffffffffffffffffffffffffffffffffff167f9e71bc8eea02a63969f509818f2dafb9254532904319f9dbda79b67bd34a5f3d8360405161162e9190611cc4565b60405180910390a250600160038190555050565b6000600f60008373ffffffffffffffffffffffffffffffffffffffff1673ffffffffffffffffffffffffffffffffffffffff168152602001908152602001600020549050919050565b600a5481565b61169961180f565b60075442116116dd576040517f08c379a00000000000000000000000000000000000000000000000000000000081526004016116d490612498565b60405180910390fd5b806009819055507ffb46ca5a5e06d4540d6387b930a7c978bce0db5f449ec6b3f5d07c6e1d44f2d36009546040516117159190611cc4565b60405180910390a150565b600080600e54141561173657600b549050611788565b600e54670de0b6b3a7640000600854600a546117506111e8565b61175a9190611eda565b6117649190611f0e565b61176e9190611f0e565b6117789190611f97565b600b546117859190611fc8565b90505b90565b600560019054906101000a900473ffffffffffffffffffffffffffffffffffffffff1681565b600b5481565b6117ff600f60003373ffffffffffffffffffffffffffffffffffffffff1673ffffffffffffffffffffffffffffffffffffffff1681526020019081526020016000205461083a565b611807610df1565b565b60075481565b60008054906101000a900473ffffffffffffffffffffffffffffffffffffffff1673ffffffffffffffffffffffffffffffffffffffff163373ffffffffffffffffffffffffffffffffffffffff161461189d576040517f08c379a00000000000000000000000000000000000000000000000000000000081526004016118949061252a565b60405180910390fd5b565b6119208363a9059cbb60e01b84846040516024016118be9291906122d9565b604051602081830303815290604052907bffffffffffffffffffffffffffffffffffffffffffffffffffffffff19166020820180517bffffffffffffffffffffffffffffffffffffffffffffffffffffffff83818316178352505050506119ae565b505050565b6119a8846323b872dd60e01b8585856040516024016119469392919061254a565b604051602081830303815290604052907bffffffffffffffffffffffffffffffffffffffffffffffffffffffff19166020820180517bffffffffffffffffffffffffffffffffffffffffffffffffffffffff83818316178352505050506119ae565b50505050565b6000611a10826040518060400160405280602081526020017f5361666545524332303a206c6f772d6c6576656c2063616c6c206661696c65648152508573ffffffffffffffffffffffffffffffffffffffff16611a759092919063ffffffff16565b9050600081511115611a705780806020019051810190611a309190612596565b611a6f576040517f08c379a0000000000000000000000000000000000000000000000000000000008152600401611a6690612635565b60405180910390fd5b5b505050565b6060611a848484600085611a8d565b90509392505050565b606082471015611ad2576040517f08c379a0000000000000000000000000000000000000000000000000000000008152600401611ac9906126c7565b60405180910390fd5b611adb85611ba1565b611b1a576040517f08c379a0000000000000000000000000000000000000000000000000000000008152600401611b1190612733565b60405180910390fd5b6000808673ffffffffffffffffffffffffffffffffffffffff168587604051611b4391906127cd565b60006040518083038185875af1925050503d8060008114611b80576040519150601f19603f3d011682016040523d82523d6000602084013e611b85565b606091505b5091509150611b95828286611bb4565b92505050949350505050565b600080823b905060008111915050919050565b60608315611bc457829050611c14565b600083511115611bd75782518084602001fd5b816040517f08c379a0000000000000000000000000000000000000000000000000000000008152600401611c0b9190612839565b60405180910390fd5b9392505050565b600080fd5b600073ffffffffffffffffffffffffffffffffffffffff82169050919050565b6000611c4b82611c20565b9050919050565b611c5b81611c40565b8114611c6657600080fd5b50565b600081359050611c7881611c52565b92915050565b600060208284031215611c9457611c93611c1b565b5b6000611ca284828501611c69565b91505092915050565b6000819050919050565b611cbe81611cab565b82525050565b6000602082019050611cd96000830184611cb5565b92915050565b60008115159050919050565b611cf481611cdf565b8114611cff57600080fd5b50565b600081359050611d1181611ceb565b92915050565b600060208284031215611d2d57611d2c611c1b565b5b6000611d3b84828501611d02565b91505092915050565b611d4d81611cab565b8114611d5857600080fd5b50565b600081359050611d6a81611d44565b92915050565b600060208284031215611d8657611d85611c1b565b5b6000611d9484828501611d5b565b91505092915050565b611da681611c40565b82525050565b6000602082019050611dc16000830184611d9d565b92915050565b611dd081611cdf565b82525050565b6000602082019050611deb6000830184611dc7565b92915050565b6000819050919050565b6000611e16611e11611e0c84611c20565b611df1565b611c20565b9050919050565b6000611e2882611dfb565b9050919050565b6000611e3a82611e1d565b9050919050565b611e4a81611e2f565b82525050565b6000602082019050611e656000830184611e41565b92915050565b60008060408385031215611e8257611e81611c1b565b5b6000611e9085828601611c69565b9250506020611ea185828601611d5b565b9150509250929050565b7f4e487b7100000000000000000000000000000000000000000000000000000000600052601160045260246000fd5b6000611ee582611cab565b9150611ef083611cab565b925082821015611f0357611f02611eab565b5b828203905092915050565b6000611f1982611cab565b9150611f2483611cab565b9250817fffffffffffffffffffffffffffffffffffffffffffffffffffffffffffffffff0483118215151615611f5d57611f5c611eab565b5b828202905092915050565b7f4e487b7100000000000000000000000000000000000000000000000000000000600052601260045260246000fd5b6000611fa282611cab565b9150611fad83611cab565b925082611fbd57611fbc611f68565b5b828204905092915050565b6000611fd382611cab565b9150611fde83611cab565b9250827fffffffffffffffffffffffffffffffffffffffffffffffffffffffffffffffff0382111561201357612012611eab565b5b828201905092915050565b600082825260208201905092915050565b7f5265656e7472616e637947756172643a207265656e7472616e742063616c6c00600082015250565b6000612065601f8361201e565b91506120708261202f565b602082019050919050565b6000602082019050818103600083015261209481612058565b9050919050565b7f43616e6e6f742077697468647261772030000000000000000000000000000000600082015250565b60006120d160118361201e565b91506120dc8261209b565b602082019050919050565b60006020820190508181036000830152612100816120c4565b9050919050565b7f43616c6c6572206973206e6f742052657761726473446973747269627574696f60008201527f6e20636f6e747261637400000000000000000000000000000000000000000000602082015250565b6000612163602a8361201e565b915061216e82612107565b604082019050919050565b6000602082019050818103600083015261219281612156565b9050919050565b6000815190506121a881611d44565b92915050565b6000602082840312156121c4576121c3611c1b565b5b60006121d284828501612199565b91505092915050565b7f50726f76696465642072657761726420746f6f20686967680000000000000000600082015250565b600061221160188361201e565b915061221c826121db565b602082019050919050565b6000602082019050818103600083015261224081612204565b9050919050565b7f43616e6e6f7420776974686472617720746865207374616b696e6720746f6b6560008201527f6e00000000000000000000000000000000000000000000000000000000000000602082015250565b60006122a360218361201e565b91506122ae82612247565b604082019050919050565b600060208201905081810360008301526122d281612296565b9050919050565b60006040820190506122ee6000830185611d9d565b6122fb6020830184611cb5565b9392505050565b7f5468697320616374696f6e2063616e6e6f7420626520706572666f726d65642060008201527f7768696c652074686520636f6e74616374206973207061757365640000000000602082015250565b600061235e603b8361201e565b915061236982612302565b604082019050919050565b6000602082019050818103600083015261238d81612351565b9050919050565b7f43616e6e6f74207374616b652030000000000000000000000000000000000000600082015250565b60006123ca600e8361201e565b91506123d582612394565b602082019050919050565b600060208201905081810360008301526123f9816123bd565b9050919050565b7f50726576696f7573207265776172647320706572696f64206d7573742062652060008201527f636f6d706c657465206265666f7265206368616e67696e67207468652064757260208201527f6174696f6e20666f7220746865206e657720706572696f640000000000000000604082015250565b600061248260588361201e565b915061248d82612400565b606082019050919050565b600060208201905081810360008301526124b181612475565b9050919050565b7f4f6e6c792074686520636f6e7472616374206f776e6572206d6179207065726660008201527f6f726d207468697320616374696f6e0000000000000000000000000000000000602082015250565b6000612514602f8361201e565b915061251f826124b8565b604082019050919050565b6000602082019050818103600083015261254381612507565b9050919050565b600060608201905061255f6000830186611d9d565b61256c6020830185611d9d565b6125796040830184611cb5565b949350505050565b60008151905061259081611ceb565b92915050565b6000602082840312156125ac576125ab611c1b565b5b60006125ba84828501612581565b91505092915050565b7f5361666545524332303a204552433230206f7065726174696f6e20646964206e60008201527f6f74207375636365656400000000000000000000000000000000000000000000602082015250565b600061261f602a8361201e565b915061262a826125c3565b604082019050919050565b6000602082019050818103600083015261264e81612612565b9050919050565b7f416464726573733a20696e73756666696369656e742062616c616e636520666f60008201527f722063616c6c0000000000000000000000000000000000000000000000000000602082015250565b60006126b160268361201e565b91506126bc82612655565b604082019050919050565b600060208201905081810360008301526126e0816126a4565b9050919050565b7f416464726573733a2063616c6c20746f206e6f6e2d636f6e7472616374000000600082015250565b600061271d601d8361201e565b9150612728826126e7565b602082019050919050565b6000602082019050818103600083015261274c81612710565b9050919050565b600081519050919050565b600081905092915050565b60005b8381101561278757808201518184015260208101905061276c565b83811115612796576000848401525b50505050565b60006127a782612753565b6127b1818561275e565b93506127c1818560208601612769565b80840191505092915050565b60006127d9828461279c565b915081905092915050565b600081519050919050565b6000601f19601f8301169050919050565b600061280b826127e4565b612815818561201e565b9350612825818560208601612769565b61282e816127ef565b840191505092915050565b600060208201905081810360008301526128538184612800565b90509291505056fea26469706673582212207e1c0e3c115b436c8d12533fd6d2f7ad7abede306807bd5dba85276f03059b5864736f6c634300080a0033",
  "linkReferences": {},
  "deployedLinkReferences": {}
}